{
  "_format": "hh3-artifact-1",
  "contractName": "GameCore",
  "sourceName": "contracts/GameCore.sol",
  "abi": [
    {
      "inputs": [
        {
          "internalType": "address",
          "name": "_usdcToken",
          "type": "address"
        }
      ],
      "stateMutability": "nonpayable",
      "type": "constructor"
    },
    {
      "anonymous": false,
      "inputs": [
        {
          "indexed": true,
          "internalType": "address",
          "name": "player",
          "type": "address"
        },
        {
          "indexed": false,
          "internalType": "uint256",
          "name": "amount",
          "type": "uint256"
        },
        {
          "indexed": false,
          "internalType": "string",
          "name": "reason",
          "type": "string"
        }
      ],
      "name": "PaymentRecorded",
      "type": "event"
    },
    {
      "anonymous": false,
      "inputs": [
        {
          "indexed": true,
          "internalType": "address",
          "name": "player",
          "type": "address"
        }
      ],
      "name": "PlayerRegistered",
      "type": "event"
    },
    {
      "anonymous": false,
      "inputs": [
        {
          "indexed": true,
          "internalType": "address",
          "name": "player",
          "type": "address"
        },
        {
          "indexed": false,
          "internalType": "uint256",
          "name": "amount",
          "type": "uint256"
        },
        {
          "indexed": false,
          "internalType": "string",
          "name": "reason",
          "type": "string"
        }
      ],
      "name": "RewardRecorded",
      "type": "event"
    },
    {
      "inputs": [
        {
          "internalType": "address",
          "name": "player",
          "type": "address"
        }
      ],
      "name": "getPlayerProfile",
      "outputs": [
        {
          "internalType": "uint256",
          "name": "totalSpentUSDC",
          "type": "uint256"
        },
        {
          "internalType": "uint256",
          "name": "totalEarnedUSDC",
          "type": "uint256"
        },
        {
          "internalType": "uint256",
          "name": "lastUpdated",
          "type": "uint256"
        },
        {
          "internalType": "bool",
          "name": "exists",
          "type": "bool"
        }
      ],
      "stateMutability": "view",
      "type": "function"
    },
    {
      "inputs": [
        {
          "internalType": "address",
          "name": "player",
          "type": "address"
        }
      ],
      "name": "getUSDCBalance",
      "outputs": [
        {
          "internalType": "uint256",
          "name": "",
          "type": "uint256"
        }
      ],
      "stateMutability": "view",
      "type": "function"
    },
    {
      "inputs": [],
      "name": "owner",
      "outputs": [
        {
          "internalType": "address",
          "name": "",
          "type": "address"
        }
      ],
      "stateMutability": "view",
      "type": "function"
    },
    {
      "inputs": [
        {
          "internalType": "uint256",
          "name": "amount",
          "type": "uint256"
        },
        {
          "internalType": "string",
          "name": "reason",
          "type": "string"
        }
      ],
      "name": "payWithUSDC",
      "outputs": [],
      "stateMutability": "nonpayable",
      "type": "function"
    },
    {
      "inputs": [
        {
          "internalType": "address",
          "name": "player",
          "type": "address"
        }
      ],
      "name": "registerPlayer",
      "outputs": [],
      "stateMutability": "nonpayable",
      "type": "function"
    },
    {
      "inputs": [
        {
          "internalType": "address",
          "name": "player",
          "type": "address"
        },
        {
          "internalType": "uint256",
          "name": "amount",
          "type": "uint256"
        },
        {
          "internalType": "string",
          "name": "reason",
          "type": "string"
        }
      ],
      "name": "rewardUSDC",
      "outputs": [],
      "stateMutability": "nonpayable",
      "type": "function"
    },
    {
      "inputs": [],
      "name": "usdcToken",
      "outputs": [
        {
          "internalType": "contract IERC20",
          "name": "",
          "type": "address"
        }
      ],
      "stateMutability": "view",
      "type": "function"
    }
  ],
  "bytecode": "0x60a060405234801561000f575f5ffd5b5060405161131c38038061131c83398181016040528101906100319190610176565b5f73ffffffffffffffffffffffffffffffffffffffff168173ffffffffffffffffffffffffffffffffffffffff160361009f576040517f08c379a0000000000000000000000000000000000000000000000000000000008152600401610096906101fb565b60405180910390fd5b8073ffffffffffffffffffffffffffffffffffffffff1660808173ffffffffffffffffffffffffffffffffffffffff1681525050335f5f6101000a81548173ffffffffffffffffffffffffffffffffffffffff021916908373ffffffffffffffffffffffffffffffffffffffff16021790555050610219565b5f5ffd5b5f73ffffffffffffffffffffffffffffffffffffffff82169050919050565b5f6101458261011c565b9050919050565b6101558161013b565b811461015f575f5ffd5b50565b5f815190506101708161014c565b92915050565b5f6020828403121561018b5761018a610118565b5b5f61019884828501610162565b91505092915050565b5f82825260208201905092915050565b7f5553444320746f6b656e207265717569726564000000000000000000000000005f82015250565b5f6101e56013836101a1565b91506101f0826101b1565b602082019050919050565b5f6020820190508181035f830152610212816101d9565b9050919050565b6080516110d66102465f395f8181610174015281816101db015281816103eb015261071d01526110d65ff3fe608060405234801561000f575f5ffd5b506004361061007b575f3560e01c80636b5cc6d9116100595780636b5cc6d9146100e95780638da5cb5b146101055780638f9a068e14610123578063d50f89891461013f5761007b565b806311eac8551461007f5780632b9f72fa1461009d57806368024717146100b9575b5f5ffd5b610087610172565b6040516100949190610a4f565b60405180910390f35b6100b760048036038101906100b29190610b04565b610196565b005b6100d360048036038101906100ce9190610b9c565b6103e8565b6040516100e09190610bd6565b60405180910390f35b61010360048036038101906100fe9190610b9c565b610488565b005b61010d6105b8565b60405161011a9190610bfe565b60405180910390f35b61013d60048036038101906101389190610c17565b6105dc565b005b61015960048036038101906101549190610b9c565b61092c565b6040516101699493929190610ca2565b60405180910390f35b7f000000000000000000000000000000000000000000000000000000000000000081565b5f83116101d8576040517f08c379a00000000000000000000000000000000000000000000000000000000081526004016101cf90610d3f565b60405180910390fd5b5f7f000000000000000000000000000000000000000000000000000000000000000073ffffffffffffffffffffffffffffffffffffffff166323b872dd3330876040518463ffffffff1660e01b815260040161023693929190610d5d565b6020604051808303815f875af1158015610252573d5f5f3e3d5ffd5b505050506040513d601f19601f820116820180604052508101906102769190610dbc565b9050806102b8576040517f08c379a00000000000000000000000000000000000000000000000000000000081526004016102af90610e31565b60405180910390fd5b5f60015f3373ffffffffffffffffffffffffffffffffffffffff1673ffffffffffffffffffffffffffffffffffffffff1681526020019081526020015f209050806003015f9054906101000a900460ff1661036d576001816003015f6101000a81548160ff0219169083151502179055503373ffffffffffffffffffffffffffffffffffffffff167f8cd3331e32cec677d80b82cf0f71496605e7ed6ff864a3ccedc7d5d11d838c8360405160405180910390a25b84815f015f82825461037f9190610e7c565b925050819055504281600201819055503373ffffffffffffffffffffffffffffffffffffffff167faf117eeed0694e53cd2e9288d481cc99efea33a61b59ab1630b5b3ef3559cffe8686866040516103d993929190610ef9565b60405180910390a25050505050565b5f7f000000000000000000000000000000000000000000000000000000000000000073ffffffffffffffffffffffffffffffffffffffff166370a08231836040518263ffffffff1660e01b81526004016104429190610bfe565b602060405180830381865afa15801561045d573d5f5f3e3d5ffd5b505050506040513d601f19601f820116820180604052508101906104819190610f3d565b9050919050565b5f73ffffffffffffffffffffffffffffffffffffffff168173ffffffffffffffffffffffffffffffffffffffff16036104f6576040517f08c379a00000000000000000000000000000000000000000000000000000000081526004016104ed90610fb2565b60405180910390fd5b5f60015f8373ffffffffffffffffffffffffffffffffffffffff1673ffffffffffffffffffffffffffffffffffffffff1681526020019081526020015f209050806003015f9054906101000a900460ff166105b4576001816003015f6101000a81548160ff0219169083151502179055504281600201819055508173ffffffffffffffffffffffffffffffffffffffff167f8cd3331e32cec677d80b82cf0f71496605e7ed6ff864a3ccedc7d5d11d838c8360405160405180910390a25b5050565b5f5f9054906101000a900473ffffffffffffffffffffffffffffffffffffffff1681565b5f5f9054906101000a900473ffffffffffffffffffffffffffffffffffffffff1673ffffffffffffffffffffffffffffffffffffffff163373ffffffffffffffffffffffffffffffffffffffff161461066a576040517f08c379a00000000000000000000000000000000000000000000000000000000081526004016106619061101a565b60405180910390fd5b5f73ffffffffffffffffffffffffffffffffffffffff168473ffffffffffffffffffffffffffffffffffffffff16036106d8576040517f08c379a00000000000000000000000000000000000000000000000000000000081526004016106cf90610fb2565b60405180910390fd5b5f831161071a576040517f08c379a000000000000000000000000000000000000000000000000000000000815260040161071190610d3f565b60405180910390fd5b5f7f000000000000000000000000000000000000000000000000000000000000000073ffffffffffffffffffffffffffffffffffffffff166323b872dd3387876040518463ffffffff1660e01b815260040161077893929190610d5d565b6020604051808303815f875af1158015610794573d5f5f3e3d5ffd5b505050506040513d601f19601f820116820180604052508101906107b89190610dbc565b9050806107fa576040517f08c379a00000000000000000000000000000000000000000000000000000000081526004016107f190611082565b60405180910390fd5b5f60015f8773ffffffffffffffffffffffffffffffffffffffff1673ffffffffffffffffffffffffffffffffffffffff1681526020019081526020015f209050806003015f9054906101000a900460ff166108af576001816003015f6101000a81548160ff0219169083151502179055508573ffffffffffffffffffffffffffffffffffffffff167f8cd3331e32cec677d80b82cf0f71496605e7ed6ff864a3ccedc7d5d11d838c8360405160405180910390a25b84816001015f8282546108c29190610e7c565b925050819055504281600201819055508573ffffffffffffffffffffffffffffffffffffffff167fb7c9277a054baee3627f465fdc9cee40455d9b73c45e66ccded298ce6c271ac986868660405161091c93929190610ef9565b60405180910390a2505050505050565b5f5f5f5f5f60015f8773ffffffffffffffffffffffffffffffffffffffff1673ffffffffffffffffffffffffffffffffffffffff1681526020019081526020015f206040518060800160405290815f82015481526020016001820154815260200160028201548152602001600382015f9054906101000a900460ff1615151515815250509050805f01518160200151826040015183606001519450945094509450509193509193565b5f73ffffffffffffffffffffffffffffffffffffffff82169050919050565b5f819050919050565b5f610a17610a12610a0d846109d5565b6109f4565b6109d5565b9050919050565b5f610a28826109fd565b9050919050565b5f610a3982610a1e565b9050919050565b610a4981610a2f565b82525050565b5f602082019050610a625f830184610a40565b92915050565b5f5ffd5b5f5ffd5b5f819050919050565b610a8281610a70565b8114610a8c575f5ffd5b50565b5f81359050610a9d81610a79565b92915050565b5f5ffd5b5f5ffd5b5f5ffd5b5f5f83601f840112610ac457610ac3610aa3565b5b8235905067ffffffffffffffff811115610ae157610ae0610aa7565b5b602083019150836001820283011115610afd57610afc610aab565b5b9250929050565b5f5f5f60408486031215610b1b57610b1a610a68565b5b5f610b2886828701610a8f565b935050602084013567ffffffffffffffff811115610b4957610b48610a6c565b5b610b5586828701610aaf565b92509250509250925092565b5f610b6b826109d5565b9050919050565b610b7b81610b61565b8114610b85575f5ffd5b50565b5f81359050610b9681610b72565b92915050565b5f60208284031215610bb157610bb0610a68565b5b5f610bbe84828501610b88565b91505092915050565b610bd081610a70565b82525050565b5f602082019050610be95f830184610bc7565b92915050565b610bf881610b61565b82525050565b5f602082019050610c115f830184610bef565b92915050565b5f5f5f5f60608587031215610c2f57610c2e610a68565b5b5f610c3c87828801610b88565b9450506020610c4d87828801610a8f565b935050604085013567ffffffffffffffff811115610c6e57610c6d610a6c565b5b610c7a87828801610aaf565b925092505092959194509250565b5f8115159050919050565b610c9c81610c88565b82525050565b5f608082019050610cb55f830187610bc7565b610cc26020830186610bc7565b610ccf6040830185610bc7565b610cdc6060830184610c93565b95945050505050565b5f82825260208201905092915050565b7f416d6f756e74206d757374206265203e203000000000000000000000000000005f82015250565b5f610d29601283610ce5565b9150610d3482610cf5565b602082019050919050565b5f6020820190508181035f830152610d5681610d1d565b9050919050565b5f606082019050610d705f830186610bef565b610d7d6020830185610bef565b610d8a6040830184610bc7565b949350505050565b610d9b81610c88565b8114610da5575f5ffd5b50565b5f81519050610db681610d92565b92915050565b5f60208284031215610dd157610dd0610a68565b5b5f610dde84828501610da8565b91505092915050565b7f55534443207472616e73666572206661696c65640000000000000000000000005f82015250565b5f610e1b601483610ce5565b9150610e2682610de7565b602082019050919050565b5f6020820190508181035f830152610e4881610e0f565b9050919050565b7f4e487b71000000000000000000000000000000000000000000000000000000005f52601160045260245ffd5b5f610e8682610a70565b9150610e9183610a70565b9250828201905080821115610ea957610ea8610e4f565b5b92915050565b828183375f83830152505050565b5f601f19601f8301169050919050565b5f610ed88385610ce5565b9350610ee5838584610eaf565b610eee83610ebd565b840190509392505050565b5f604082019050610f0c5f830186610bc7565b8181036020830152610f1f818486610ecd565b9050949350505050565b5f81519050610f3781610a79565b92915050565b5f60208284031215610f5257610f51610a68565b5b5f610f5f84828501610f29565b91505092915050565b7f496e76616c696420706c617965720000000000000000000000000000000000005f82015250565b5f610f9c600e83610ce5565b9150610fa782610f68565b602082019050919050565b5f6020820190508181035f830152610fc981610f90565b9050919050565b7f4e6f7420636f6e7472616374206f776e657200000000000000000000000000005f82015250565b5f611004601283610ce5565b915061100f82610fd0565b602082019050919050565b5f6020820190508181035f83015261103181610ff8565b9050919050565b7f5553444320726577617264207472616e73666572206661696c656400000000005f82015250565b5f61106c601b83610ce5565b915061107782611038565b602082019050919050565b5f6020820190508181035f83015261109981611060565b905091905056fea2646970667358221220704c708d996d3e799a7cfaab86b4d5770f4c9b8a9edeff06f00c34c1c76f800f64736f6c634300081c0033",
  "linkReferences": {},
  "deployedLinkReferences": {},
  "immutableReferences": {
    "7683": [
      {
        "length": 32,
        "start": 372
      },
      {
        "length": 32,
        "start": 475
      },
      {
        "length": 32,
        "start": 1003
      },
      {
        "length": 32,
        "start": 1821
      }
    ]
  },
  "inputSourceName": "project/contracts/GameCore.sol",
  "buildInfoId": "solc-0_8_28-c06caadf12e81f53031fff6fd632196065b475d3"
}