{
  "_format": "hh3-artifact-1",
  "contractName": "GameNFT",
  "sourceName": "contracts/GameNFT.sol",
  "abi": [
    {
      "inputs": [
        {
          "internalType": "address",
          "name": "initialOwner",
          "type": "address"
        }
      ],
      "stateMutability": "nonpayable",
      "type": "constructor"
    },
    {
      "inputs": [
        {
          "internalType": "address",
          "name": "sender",
          "type": "address"
        },
        {
          "internalType": "uint256",
          "name": "tokenId",
          "type": "uint256"
        },
        {
          "internalType": "address",
          "name": "owner",
          "type": "address"
        }
      ],
      "name": "ERC721IncorrectOwner",
      "type": "error"
    },
    {
      "inputs": [
        {
          "internalType": "address",
          "name": "operator",
          "type": "address"
        },
        {
          "internalType": "uint256",
          "name": "tokenId",
          "type": "uint256"
        }
      ],
      "name": "ERC721InsufficientApproval",
      "type": "error"
    },
    {
      "inputs": [
        {
          "internalType": "address",
          "name": "approver",
          "type": "address"
        }
      ],
      "name": "ERC721InvalidApprover",
      "type": "error"
    },
    {
      "inputs": [
        {
          "internalType": "address",
          "name": "operator",
          "type": "address"
        }
      ],
      "name": "ERC721InvalidOperator",
      "type": "error"
    },
    {
      "inputs": [
        {
          "internalType": "address",
          "name": "owner",
          "type": "address"
        }
      ],
      "name": "ERC721InvalidOwner",
      "type": "error"
    },
    {
      "inputs": [
        {
          "internalType": "address",
          "name": "receiver",
          "type": "address"
        }
      ],
      "name": "ERC721InvalidReceiver",
      "type": "error"
    },
    {
      "inputs": [
        {
          "internalType": "address",
          "name": "sender",
          "type": "address"
        }
      ],
      "name": "ERC721InvalidSender",
      "type": "error"
    },
    {
      "inputs": [
        {
          "internalType": "uint256",
          "name": "tokenId",
          "type": "uint256"
        }
      ],
      "name": "ERC721NonexistentToken",
      "type": "error"
    },
    {
      "inputs": [
        {
          "internalType": "address",
          "name": "owner",
          "type": "address"
        }
      ],
      "name": "OwnableInvalidOwner",
      "type": "error"
    },
    {
      "inputs": [
        {
          "internalType": "address",
          "name": "account",
          "type": "address"
        }
      ],
      "name": "OwnableUnauthorizedAccount",
      "type": "error"
    },
    {
      "anonymous": false,
      "inputs": [
        {
          "indexed": true,
          "internalType": "address",
          "name": "owner",
          "type": "address"
        },
        {
          "indexed": true,
          "internalType": "address",
          "name": "approved",
          "type": "address"
        },
        {
          "indexed": true,
          "internalType": "uint256",
          "name": "tokenId",
          "type": "uint256"
        }
      ],
      "name": "Approval",
      "type": "event"
    },
    {
      "anonymous": false,
      "inputs": [
        {
          "indexed": true,
          "internalType": "address",
          "name": "owner",
          "type": "address"
        },
        {
          "indexed": true,
          "internalType": "address",
          "name": "operator",
          "type": "address"
        },
        {
          "indexed": false,
          "internalType": "bool",
          "name": "approved",
          "type": "bool"
        }
      ],
      "name": "ApprovalForAll",
      "type": "event"
    },
    {
      "anonymous": false,
      "inputs": [
        {
          "indexed": false,
          "internalType": "uint256",
          "name": "_fromTokenId",
          "type": "uint256"
        },
        {
          "indexed": false,
          "internalType": "uint256",
          "name": "_toTokenId",
          "type": "uint256"
        }
      ],
      "name": "BatchMetadataUpdate",
      "type": "event"
    },
    {
      "anonymous": false,
      "inputs": [
        {
          "indexed": true,
          "internalType": "address",
          "name": "to",
          "type": "address"
        },
        {
          "indexed": true,
          "internalType": "uint256",
          "name": "tokenId",
          "type": "uint256"
        },
        {
          "indexed": false,
          "internalType": "string",
          "name": "tokenURI",
          "type": "string"
        }
      ],
      "name": "GameNFTMinted",
      "type": "event"
    },
    {
      "anonymous": false,
      "inputs": [
        {
          "indexed": false,
          "internalType": "uint256",
          "name": "_tokenId",
          "type": "uint256"
        }
      ],
      "name": "MetadataUpdate",
      "type": "event"
    },
    {
      "anonymous": false,
      "inputs": [
        {
          "indexed": true,
          "internalType": "address",
          "name": "previousOwner",
          "type": "address"
        },
        {
          "indexed": true,
          "internalType": "address",
          "name": "newOwner",
          "type": "address"
        }
      ],
      "name": "OwnershipTransferred",
      "type": "event"
    },
    {
      "anonymous": false,
      "inputs": [
        {
          "indexed": true,
          "internalType": "address",
          "name": "from",
          "type": "address"
        },
        {
          "indexed": true,
          "internalType": "address",
          "name": "to",
          "type": "address"
        },
        {
          "indexed": true,
          "internalType": "uint256",
          "name": "tokenId",
          "type": "uint256"
        }
      ],
      "name": "Transfer",
      "type": "event"
    },
    {
      "inputs": [
        {
          "internalType": "address",
          "name": "to",
          "type": "address"
        },
        {
          "internalType": "uint256",
          "name": "tokenId",
          "type": "uint256"
        }
      ],
      "name": "approve",
      "outputs": [],
      "stateMutability": "nonpayable",
      "type": "function"
    },
    {
      "inputs": [
        {
          "internalType": "address",
          "name": "owner",
          "type": "address"
        }
      ],
      "name": "balanceOf",
      "outputs": [
        {
          "internalType": "uint256",
          "name": "",
          "type": "uint256"
        }
      ],
      "stateMutability": "view",
      "type": "function"
    },
    {
      "inputs": [
        {
          "internalType": "uint256",
          "name": "tokenId",
          "type": "uint256"
        }
      ],
      "name": "getApproved",
      "outputs": [
        {
          "internalType": "address",
          "name": "",
          "type": "address"
        }
      ],
      "stateMutability": "view",
      "type": "function"
    },
    {
      "inputs": [
        {
          "internalType": "address",
          "name": "owner",
          "type": "address"
        },
        {
          "internalType": "address",
          "name": "operator",
          "type": "address"
        }
      ],
      "name": "isApprovedForAll",
      "outputs": [
        {
          "internalType": "bool",
          "name": "",
          "type": "bool"
        }
      ],
      "stateMutability": "view",
      "type": "function"
    },
    {
      "inputs": [
        {
          "internalType": "address",
          "name": "to",
          "type": "address"
        },
        {
          "internalType": "string",
          "name": "tokenURI_",
          "type": "string"
        }
      ],
      "name": "mintTo",
      "outputs": [
        {
          "internalType": "uint256",
          "name": "",
          "type": "uint256"
        }
      ],
      "stateMutability": "nonpayable",
      "type": "function"
    },
    {
      "inputs": [],
      "name": "name",
      "outputs": [
        {
          "internalType": "string",
          "name": "",
          "type": "string"
        }
      ],
      "stateMutability": "view",
      "type": "function"
    },
    {
      "inputs": [],
      "name": "nextTokenId",
      "outputs": [
        {
          "internalType": "uint256",
          "name": "",
          "type": "uint256"
        }
      ],
      "stateMutability": "view",
      "type": "function"
    },
    {
      "inputs": [],
      "name": "owner",
      "outputs": [
        {
          "internalType": "address",
          "name": "",
          "type": "address"
        }
      ],
      "stateMutability": "view",
      "type": "function"
    },
    {
      "inputs": [
        {
          "internalType": "uint256",
          "name": "tokenId",
          "type": "uint256"
        }
      ],
      "name": "ownerOf",
      "outputs": [
        {
          "internalType": "address",
          "name": "",
          "type": "address"
        }
      ],
      "stateMutability": "view",
      "type": "function"
    },
    {
      "inputs": [],
      "name": "renounceOwnership",
      "outputs": [],
      "stateMutability": "nonpayable",
      "type": "function"
    },
    {
      "inputs": [
        {
          "internalType": "address",
          "name": "from",
          "type": "address"
        },
        {
          "internalType": "address",
          "name": "to",
          "type": "address"
        },
        {
          "internalType": "uint256",
          "name": "tokenId",
          "type": "uint256"
        }
      ],
      "name": "safeTransferFrom",
      "outputs": [],
      "stateMutability": "nonpayable",
      "type": "function"
    },
    {
      "inputs": [
        {
          "internalType": "address",
          "name": "from",
          "type": "address"
        },
        {
          "internalType": "address",
          "name": "to",
          "type": "address"
        },
        {
          "internalType": "uint256",
          "name": "tokenId",
          "type": "uint256"
        },
        {
          "internalType": "bytes",
          "name": "data",
          "type": "bytes"
        }
      ],
      "name": "safeTransferFrom",
      "outputs": [],
      "stateMutability": "nonpayable",
      "type": "function"
    },
    {
      "inputs": [
        {
          "internalType": "address",
          "name": "operator",
          "type": "address"
        },
        {
          "internalType": "bool",
          "name": "approved",
          "type": "bool"
        }
      ],
      "name": "setApprovalForAll",
      "outputs": [],
      "stateMutability": "nonpayable",
      "type": "function"
    },
    {
      "inputs": [
        {
          "internalType": "bytes4",
          "name": "interfaceId",
          "type": "bytes4"
        }
      ],
      "name": "supportsInterface",
      "outputs": [
        {
          "internalType": "bool",
          "name": "",
          "type": "bool"
        }
      ],
      "stateMutability": "view",
      "type": "function"
    },
    {
      "inputs": [],
      "name": "symbol",
      "outputs": [
        {
          "internalType": "string",
          "name": "",
          "type": "string"
        }
      ],
      "stateMutability": "view",
      "type": "function"
    },
    {
      "inputs": [
        {
          "internalType": "uint256",
          "name": "tokenId",
          "type": "uint256"
        }
      ],
      "name": "tokenURI",
      "outputs": [
        {
          "internalType": "string",
          "name": "",
          "type": "string"
        }
      ],
      "stateMutability": "view",
      "type": "function"
    },
    {
      "inputs": [
        {
          "internalType": "address",
          "name": "from",
          "type": "address"
        },
        {
          "internalType": "address",
          "name": "to",
          "type": "address"
        },
        {
          "internalType": "uint256",
          "name": "tokenId",
          "type": "uint256"
        }
      ],
      "name": "transferFrom",
      "outputs": [],
      "stateMutability": "nonpayable",
      "type": "function"
    },
    {
      "inputs": [
        {
          "internalType": "address",
          "name": "newOwner",
          "type": "address"
        }
      ],
      "name": "transferOwnership",
      "outputs": [],
      "stateMutability": "nonpayable",
      "type": "function"
    }
  ],
  "bytecode": "0x608060405234801561000f575f5ffd5b50604051612d8c380380612d8c8339818101604052810190610031919061026e565b806040518060400160405280600c81526020017f4172632047616d65204e465400000000000000000000000000000000000000008152506040518060400160405280600681526020017f4152434e46540000000000000000000000000000000000000000000000000000815250815f90816100ac91906104d6565b5080600190816100bc91906104d6565b5050505f73ffffffffffffffffffffffffffffffffffffffff168173ffffffffffffffffffffffffffffffffffffffff160361012f575f6040517f1e4fbdf700000000000000000000000000000000000000000000000000000000815260040161012691906105b4565b60405180910390fd5b61013e8161014d60201b60201c565b506001600881905550506105cd565b5f60075f9054906101000a900473ffffffffffffffffffffffffffffffffffffffff1690508160075f6101000a81548173ffffffffffffffffffffffffffffffffffffffff021916908373ffffffffffffffffffffffffffffffffffffffff1602179055508173ffffffffffffffffffffffffffffffffffffffff168173ffffffffffffffffffffffffffffffffffffffff167f8be0079c531659141344cd1fd0a4f28419497f9722a3daafe3b4186f6b6457e060405160405180910390a35050565b5f5ffd5b5f73ffffffffffffffffffffffffffffffffffffffff82169050919050565b5f61023d82610214565b9050919050565b61024d81610233565b8114610257575f5ffd5b50565b5f8151905061026881610244565b92915050565b5f6020828403121561028357610282610210565b5b5f6102908482850161025a565b91505092915050565b5f81519050919050565b7f4e487b71000000000000000000000000000000000000000000000000000000005f52604160045260245ffd5b7f4e487b71000000000000000000000000000000000000000000000000000000005f52602260045260245ffd5b5f600282049050600182168061031457607f821691505b602082108103610327576103266102d0565b5b50919050565b5f819050815f5260205f209050919050565b5f6020601f8301049050919050565b5f82821b905092915050565b5f600883026103897fffffffffffffffffffffffffffffffffffffffffffffffffffffffffffffffff8261034e565b610393868361034e565b95508019841693508086168417925050509392505050565b5f819050919050565b5f819050919050565b5f6103d76103d26103cd846103ab565b6103b4565b6103ab565b9050919050565b5f819050919050565b6103f0836103bd565b6104046103fc826103de565b84845461035a565b825550505050565b5f5f905090565b61041b61040c565b6104268184846103e7565b505050565b5b818110156104495761043e5f82610413565b60018101905061042c565b5050565b601f82111561048e5761045f8161032d565b6104688461033f565b81016020851015610477578190505b61048b6104838561033f565b83018261042b565b50505b505050565b5f82821c905092915050565b5f6104ae5f1984600802610493565b1980831691505092915050565b5f6104c6838361049f565b9150826002028217905092915050565b6104df82610299565b67ffffffffffffffff8111156104f8576104f76102a3565b5b61050282546102fd565b61050d82828561044d565b5f60209050601f83116001811461053e575f841561052c578287015190505b61053685826104bb565b86555061059d565b601f19841661054c8661032d565b5f5b828110156105735784890151825560018201915060208501945060208101905061054e565b86831015610590578489015161058c601f89168261049f565b8355505b6001600288020188555050505b505050505050565b6105ae81610233565b82525050565b5f6020820190506105c75f8301846105a5565b92915050565b6127b2806105da5f395ff3fe608060405234801561000f575f5ffd5b5060043610610113575f3560e01c8063715018a6116100a0578063a22cb4651161006f578063a22cb465146102dd578063b88d4fde146102f9578063c87b56dd14610315578063e985e9c514610345578063f2fde38b1461037557610113565b8063715018a61461027957806375794a3c146102835780638da5cb5b146102a157806395d89b41146102bf57610113565b8063095ea7b3116100e7578063095ea7b3146101c557806323b872dd146101e157806342842e0e146101fd5780636352211e1461021957806370a082311461024957610113565b806275a3171461011757806301ffc9a71461014757806306fdde0314610177578063081812fc14610195575b5f5ffd5b610131600480360381019061012c9190611c84565b610391565b60405161013e9190611cf9565b60405180910390f35b610161600480360381019061015c9190611d67565b6104da565b60405161016e9190611dac565b60405180910390f35b61017f61053a565b60405161018c9190611e35565b60405180910390f35b6101af60048036038101906101aa9190611e7f565b6105c9565b6040516101bc9190611eb9565b60405180910390f35b6101df60048036038101906101da9190611ed2565b6105e4565b005b6101fb60048036038101906101f69190611f10565b6105fa565b005b61021760048036038101906102129190611f10565b6106f9565b005b610233600480360381019061022e9190611e7f565b610718565b6040516102409190611eb9565b60405180910390f35b610263600480360381019061025e9190611f60565b610729565b6040516102709190611cf9565b60405180910390f35b6102816107df565b005b61028b6107f2565b6040516102989190611cf9565b60405180910390f35b6102a96107fb565b6040516102b69190611eb9565b60405180910390f35b6102c7610823565b6040516102d49190611e35565b60405180910390f35b6102f760048036038101906102f29190611fb5565b6108b3565b005b610313600480360381019061030e919061211b565b6108c9565b005b61032f600480360381019061032a9190611e7f565b6108ee565b60405161033c9190611e35565b60405180910390f35b61035f600480360381019061035a919061219b565b61096a565b60405161036c9190611dac565b60405180910390f35b61038f600480360381019061038a9190611f60565b6109f8565b005b5f61039a610a7c565b5f73ffffffffffffffffffffffffffffffffffffffff168473ffffffffffffffffffffffffffffffffffffffff1603610408576040517f08c379a00000000000000000000000000000000000000000000000000000000081526004016103ff90612223565b60405180910390fd5b5f60085490506104188582610b03565b6104658185858080601f0160208091040260200160405190810160405280939291908181526020018383808284375f81840152601f19601f82011690508083019250505050505050610b20565b808573ffffffffffffffffffffffffffffffffffffffff167f01701d70822276b5fb79aaabd6b1c168ffa07ca0f22e6936f8a04fd367ac534886866040516104ae92919061226d565b60405180910390a3600160085f8282546104c891906122bc565b92505081905550809150509392505050565b5f634906490660e01b7bffffffffffffffffffffffffffffffffffffffffffffffffffffffff1916827bffffffffffffffffffffffffffffffffffffffffffffffffffffffff19161480610533575061053282610b7a565b5b9050919050565b60605f80546105489061231c565b80601f01602080910402602001604051908101604052809291908181526020018280546105749061231c565b80156105bf5780601f10610596576101008083540402835291602001916105bf565b820191905f5260205f20905b8154815290600101906020018083116105a257829003601f168201915b5050505050905090565b5f6105d382610c5b565b506105dd82610ce1565b9050919050565b6105f682826105f1610d1a565b610d21565b5050565b5f73ffffffffffffffffffffffffffffffffffffffff168273ffffffffffffffffffffffffffffffffffffffff160361066a575f6040517f64a0ae920000000000000000000000000000000000000000000000000000000081526004016106619190611eb9565b60405180910390fd5b5f61067d8383610678610d1a565b610d33565b90508373ffffffffffffffffffffffffffffffffffffffff168173ffffffffffffffffffffffffffffffffffffffff16146106f3578382826040517f64283d7b0000000000000000000000000000000000000000000000000000000081526004016106ea9392919061234c565b60405180910390fd5b50505050565b61071383838360405180602001604052805f8152506108c9565b505050565b5f61072282610c5b565b9050919050565b5f5f73ffffffffffffffffffffffffffffffffffffffff168273ffffffffffffffffffffffffffffffffffffffff160361079a575f6040517f89c62b640000000000000000000000000000000000000000000000000000000081526004016107919190611eb9565b60405180910390fd5b60035f8373ffffffffffffffffffffffffffffffffffffffff1673ffffffffffffffffffffffffffffffffffffffff1681526020019081526020015f20549050919050565b6107e7610a7c565b6107f05f610f3e565b565b5f600854905090565b5f60075f9054906101000a900473ffffffffffffffffffffffffffffffffffffffff16905090565b6060600180546108329061231c565b80601f016020809104026020016040519081016040528092919081815260200182805461085e9061231c565b80156108a95780601f10610880576101008083540402835291602001916108a9565b820191905f5260205f20905b81548152906001019060200180831161088c57829003601f168201915b5050505050905090565b6108c56108be610d1a565b8383611001565b5050565b6108d48484846105fa565b6108e86108df610d1a565b858585856111da565b50505050565b60606108f982610c5b565b505f610903611386565b90505f61090f8461139c565b90505f825103610923578092505050610965565b5f8151111561095757818160405160200161093f9291906123bb565b60405160208183030381529060405292505050610965565b6109608461143d565b925050505b919050565b5f60055f8473ffffffffffffffffffffffffffffffffffffffff1673ffffffffffffffffffffffffffffffffffffffff1681526020019081526020015f205f8373ffffffffffffffffffffffffffffffffffffffff1673ffffffffffffffffffffffffffffffffffffffff1681526020019081526020015f205f9054906101000a900460ff16905092915050565b610a00610a7c565b5f73ffffffffffffffffffffffffffffffffffffffff168173ffffffffffffffffffffffffffffffffffffffff1603610a70575f6040517f1e4fbdf7000000000000000000000000000000000000000000000000000000008152600401610a679190611eb9565b60405180910390fd5b610a7981610f3e565b50565b610a84610d1a565b73ffffffffffffffffffffffffffffffffffffffff16610aa26107fb565b73ffffffffffffffffffffffffffffffffffffffff1614610b0157610ac5610d1a565b6040517f118cdaa7000000000000000000000000000000000000000000000000000000008152600401610af89190611eb9565b60405180910390fd5b565b610b1c828260405180602001604052805f8152506114a3565b5050565b8060065f8481526020019081526020015f209081610b3e919061257e565b507ff8e1a15aba9398e019f0b49df1a4fde98ee17ae345cb5f6b5e2c27f5033e8ce782604051610b6e9190611cf9565b60405180910390a15050565b5f7f80ac58cd000000000000000000000000000000000000000000000000000000007bffffffffffffffffffffffffffffffffffffffffffffffffffffffff1916827bffffffffffffffffffffffffffffffffffffffffffffffffffffffff19161480610c4457507f5b5e139f000000000000000000000000000000000000000000000000000000007bffffffffffffffffffffffffffffffffffffffffffffffffffffffff1916827bffffffffffffffffffffffffffffffffffffffffffffffffffffffff1916145b80610c545750610c53826114c6565b5b9050919050565b5f5f610c668361152f565b90505f73ffffffffffffffffffffffffffffffffffffffff168173ffffffffffffffffffffffffffffffffffffffff1603610cd857826040517f7e273289000000000000000000000000000000000000000000000000000000008152600401610ccf9190611cf9565b60405180910390fd5b80915050919050565b5f60045f8381526020019081526020015f205f9054906101000a900473ffffffffffffffffffffffffffffffffffffffff169050919050565b5f33905090565b610d2e8383836001611568565b505050565b5f5f610d3e8461152f565b90505f73ffffffffffffffffffffffffffffffffffffffff168373ffffffffffffffffffffffffffffffffffffffff1614610d7f57610d7e818486611727565b5b5f73ffffffffffffffffffffffffffffffffffffffff168173ffffffffffffffffffffffffffffffffffffffff1614610e0a57610dbe5f855f5f611568565b600160035f8373ffffffffffffffffffffffffffffffffffffffff1673ffffffffffffffffffffffffffffffffffffffff1681526020019081526020015f205f82825403925050819055505b5f73ffffffffffffffffffffffffffffffffffffffff168573ffffffffffffffffffffffffffffffffffffffff1614610e8957600160035f8773ffffffffffffffffffffffffffffffffffffffff1673ffffffffffffffffffffffffffffffffffffffff1681526020019081526020015f205f82825401925050819055505b8460025f8681526020019081526020015f205f6101000a81548173ffffffffffffffffffffffffffffffffffffffff021916908373ffffffffffffffffffffffffffffffffffffffff160217905550838573ffffffffffffffffffffffffffffffffffffffff168273ffffffffffffffffffffffffffffffffffffffff167fddf252ad1be2c89b69c2b068fc378daa952ba7f163c4a11628f55a4df523b3ef60405160405180910390a4809150509392505050565b5f60075f9054906101000a900473ffffffffffffffffffffffffffffffffffffffff1690508160075f6101000a81548173ffffffffffffffffffffffffffffffffffffffff021916908373ffffffffffffffffffffffffffffffffffffffff1602179055508173ffffffffffffffffffffffffffffffffffffffff168173ffffffffffffffffffffffffffffffffffffffff167f8be0079c531659141344cd1fd0a4f28419497f9722a3daafe3b4186f6b6457e060405160405180910390a35050565b5f73ffffffffffffffffffffffffffffffffffffffff168373ffffffffffffffffffffffffffffffffffffffff1603611071575f6040517fa9fbf51f0000000000000000000000000000000000000000000000000000000081526004016110689190611eb9565b60405180910390fd5b5f73ffffffffffffffffffffffffffffffffffffffff168273ffffffffffffffffffffffffffffffffffffffff16036110e157816040517f5b08ba180000000000000000000000000000000000000000000000000000000081526004016110d89190611eb9565b60405180910390fd5b8060055f8573ffffffffffffffffffffffffffffffffffffffff1673ffffffffffffffffffffffffffffffffffffffff1681526020019081526020015f205f8473ffffffffffffffffffffffffffffffffffffffff1673ffffffffffffffffffffffffffffffffffffffff1681526020019081526020015f205f6101000a81548160ff0219169083151502179055508173ffffffffffffffffffffffffffffffffffffffff168373ffffffffffffffffffffffffffffffffffffffff167f17307eab39ab6107e8899845ad3d59bd9653f200f220920489ca2b5937696c31836040516111cd9190611dac565b60405180910390a3505050565b5f8373ffffffffffffffffffffffffffffffffffffffff163b111561137f578273ffffffffffffffffffffffffffffffffffffffff1663150b7a02868685856040518563ffffffff1660e01b8152600401611238949392919061269f565b6020604051808303815f875af192505050801561127357506040513d601f19601f8201168201806040525081019061127091906126fd565b60015b6112f4573d805f81146112a1576040519150601f19603f3d011682016040523d82523d5f602084013e6112a6565b606091505b505f8151036112ec57836040517f64a0ae920000000000000000000000000000000000000000000000000000000081526004016112e39190611eb9565b60405180910390fd5b805160208201fd5b63150b7a0260e01b7bffffffffffffffffffffffffffffffffffffffffffffffffffffffff1916817bffffffffffffffffffffffffffffffffffffffffffffffffffffffff19161461137d57836040517f64a0ae920000000000000000000000000000000000000000000000000000000081526004016113749190611eb9565b60405180910390fd5b505b5050505050565b606060405180602001604052805f815250905090565b606060065f8381526020019081526020015f2080546113ba9061231c565b80601f01602080910402602001604051908101604052809291908181526020018280546113e69061231c565b80156114315780601f1061140857610100808354040283529160200191611431565b820191905f5260205f20905b81548152906001019060200180831161141457829003601f168201915b50505050509050919050565b606061144882610c5b565b505f611452611386565b90505f8151116114705760405180602001604052805f81525061149b565b8061147a846117ea565b60405160200161148b9291906123bb565b6040516020818303038152906040525b915050919050565b6114ad83836118b4565b6114c16114b8610d1a565b5f8585856111da565b505050565b5f7f01ffc9a7000000000000000000000000000000000000000000000000000000007bffffffffffffffffffffffffffffffffffffffffffffffffffffffff1916827bffffffffffffffffffffffffffffffffffffffffffffffffffffffff1916149050919050565b5f60025f8381526020019081526020015f205f9054906101000a900473ffffffffffffffffffffffffffffffffffffffff169050919050565b80806115a057505f73ffffffffffffffffffffffffffffffffffffffff168273ffffffffffffffffffffffffffffffffffffffff1614155b156116d2575f6115af84610c5b565b90505f73ffffffffffffffffffffffffffffffffffffffff168373ffffffffffffffffffffffffffffffffffffffff161415801561161957508273ffffffffffffffffffffffffffffffffffffffff168173ffffffffffffffffffffffffffffffffffffffff1614155b801561162c575061162a818461096a565b155b1561166e57826040517fa9fbf51f0000000000000000000000000000000000000000000000000000000081526004016116659190611eb9565b60405180910390fd5b81156116d057838573ffffffffffffffffffffffffffffffffffffffff168273ffffffffffffffffffffffffffffffffffffffff167f8c5be1e5ebec7d5bd14f71427d1e84f3dd0314c0f7b2291e5b200ac8c7c3b92560405160405180910390a45b505b8360045f8581526020019081526020015f205f6101000a81548173ffffffffffffffffffffffffffffffffffffffff021916908373ffffffffffffffffffffffffffffffffffffffff16021790555050505050565b6117328383836119a7565b6117e5575f73ffffffffffffffffffffffffffffffffffffffff168373ffffffffffffffffffffffffffffffffffffffff16036117a657806040517f7e27328900000000000000000000000000000000000000000000000000000000815260040161179d9190611cf9565b60405180910390fd5b81816040517f177e802f0000000000000000000000000000000000000000000000000000000081526004016117dc929190612728565b60405180910390fd5b505050565b60605f60016117f884611a67565b0190505f8167ffffffffffffffff81111561181657611815611ff7565b5b6040519080825280601f01601f1916602001820160405280156118485781602001600182028036833780820191505090505b5090505f82602083010190505b6001156118a9578080600190039150507f3031323334353637383961626364656600000000000000000000000000000000600a86061a8153600a858161189e5761189d61274f565b5b0494505f8503611855575b819350505050919050565b5f73ffffffffffffffffffffffffffffffffffffffff168273ffffffffffffffffffffffffffffffffffffffff1603611924575f6040517f64a0ae9200000000000000000000000000000000000000000000000000000000815260040161191b9190611eb9565b60405180910390fd5b5f61193083835f610d33565b90505f73ffffffffffffffffffffffffffffffffffffffff168173ffffffffffffffffffffffffffffffffffffffff16146119a2575f6040517f73c6ac6e0000000000000000000000000000000000000000000000000000000081526004016119999190611eb9565b60405180910390fd5b505050565b5f5f73ffffffffffffffffffffffffffffffffffffffff168373ffffffffffffffffffffffffffffffffffffffff1614158015611a5e57508273ffffffffffffffffffffffffffffffffffffffff168473ffffffffffffffffffffffffffffffffffffffff161480611a1f5750611a1e848461096a565b5b80611a5d57508273ffffffffffffffffffffffffffffffffffffffff16611a4583610ce1565b73ffffffffffffffffffffffffffffffffffffffff16145b5b90509392505050565b5f5f5f90507a184f03e93ff9f4daa797ed6e38ed64bf6a1f0100000000000000008310611ac3577a184f03e93ff9f4daa797ed6e38ed64bf6a1f0100000000000000008381611ab957611ab861274f565b5b0492506040810190505b6d04ee2d6d415b85acef81000000008310611b00576d04ee2d6d415b85acef81000000008381611af657611af561274f565b5b0492506020810190505b662386f26fc100008310611b2f57662386f26fc100008381611b2557611b2461274f565b5b0492506010810190505b6305f5e1008310611b58576305f5e1008381611b4e57611b4d61274f565b5b0492506008810190505b6127108310611b7d576127108381611b7357611b7261274f565b5b0492506004810190505b60648310611ba05760648381611b9657611b9561274f565b5b0492506002810190505b600a8310611baf576001810190505b80915050919050565b5f604051905090565b5f5ffd5b5f5ffd5b5f73ffffffffffffffffffffffffffffffffffffffff82169050919050565b5f611bf282611bc9565b9050919050565b611c0281611be8565b8114611c0c575f5ffd5b50565b5f81359050611c1d81611bf9565b92915050565b5f5ffd5b5f5ffd5b5f5ffd5b5f5f83601f840112611c4457611c43611c23565b5b8235905067ffffffffffffffff811115611c6157611c60611c27565b5b602083019150836001820283011115611c7d57611c7c611c2b565b5b9250929050565b5f5f5f60408486031215611c9b57611c9a611bc1565b5b5f611ca886828701611c0f565b935050602084013567ffffffffffffffff811115611cc957611cc8611bc5565b5b611cd586828701611c2f565b92509250509250925092565b5f819050919050565b611cf381611ce1565b82525050565b5f602082019050611d0c5f830184611cea565b92915050565b5f7fffffffff0000000000000000000000000000000000000000000000000000000082169050919050565b611d4681611d12565b8114611d50575f5ffd5b50565b5f81359050611d6181611d3d565b92915050565b5f60208284031215611d7c57611d7b611bc1565b5b5f611d8984828501611d53565b91505092915050565b5f8115159050919050565b611da681611d92565b82525050565b5f602082019050611dbf5f830184611d9d565b92915050565b5f81519050919050565b5f82825260208201905092915050565b8281835e5f83830152505050565b5f601f19601f8301169050919050565b5f611e0782611dc5565b611e118185611dcf565b9350611e21818560208601611ddf565b611e2a81611ded565b840191505092915050565b5f6020820190508181035f830152611e4d8184611dfd565b905092915050565b611e5e81611ce1565b8114611e68575f5ffd5b50565b5f81359050611e7981611e55565b92915050565b5f60208284031215611e9457611e93611bc1565b5b5f611ea184828501611e6b565b91505092915050565b611eb381611be8565b82525050565b5f602082019050611ecc5f830184611eaa565b92915050565b5f5f60408385031215611ee857611ee7611bc1565b5b5f611ef585828601611c0f565b9250506020611f0685828601611e6b565b9150509250929050565b5f5f5f60608486031215611f2757611f26611bc1565b5b5f611f3486828701611c0f565b9350506020611f4586828701611c0f565b9250506040611f5686828701611e6b565b9150509250925092565b5f60208284031215611f7557611f74611bc1565b5b5f611f8284828501611c0f565b91505092915050565b611f9481611d92565b8114611f9e575f5ffd5b50565b5f81359050611faf81611f8b565b92915050565b5f5f60408385031215611fcb57611fca611bc1565b5b5f611fd885828601611c0f565b9250506020611fe985828601611fa1565b9150509250929050565b5f5ffd5b7f4e487b71000000000000000000000000000000000000000000000000000000005f52604160045260245ffd5b61202d82611ded565b810181811067ffffffffffffffff8211171561204c5761204b611ff7565b5b80604052505050565b5f61205e611bb8565b905061206a8282612024565b919050565b5f67ffffffffffffffff82111561208957612088611ff7565b5b61209282611ded565b9050602081019050919050565b828183375f83830152505050565b5f6120bf6120ba8461206f565b612055565b9050828152602081018484840111156120db576120da611ff3565b5b6120e684828561209f565b509392505050565b5f82601f83011261210257612101611c23565b5b81356121128482602086016120ad565b91505092915050565b5f5f5f5f6080858703121561213357612132611bc1565b5b5f61214087828801611c0f565b945050602061215187828801611c0f565b935050604061216287828801611e6b565b925050606085013567ffffffffffffffff81111561218357612182611bc5565b5b61218f878288016120ee565b91505092959194509250565b5f5f604083850312156121b1576121b0611bc1565b5b5f6121be85828601611c0f565b92505060206121cf85828601611c0f565b9150509250929050565b7f496e76616c696420726563697069656e740000000000000000000000000000005f82015250565b5f61220d601183611dcf565b9150612218826121d9565b602082019050919050565b5f6020820190508181035f83015261223a81612201565b9050919050565b5f61224c8385611dcf565b935061225983858461209f565b61226283611ded565b840190509392505050565b5f6020820190508181035f830152612286818486612241565b90509392505050565b7f4e487b71000000000000000000000000000000000000000000000000000000005f52601160045260245ffd5b5f6122c682611ce1565b91506122d183611ce1565b92508282019050808211156122e9576122e861228f565b5b92915050565b7f4e487b71000000000000000000000000000000000000000000000000000000005f52602260045260245ffd5b5f600282049050600182168061233357607f821691505b602082108103612346576123456122ef565b5b50919050565b5f60608201905061235f5f830186611eaa565b61236c6020830185611cea565b6123796040830184611eaa565b949350505050565b5f81905092915050565b5f61239582611dc5565b61239f8185612381565b93506123af818560208601611ddf565b80840191505092915050565b5f6123c6828561238b565b91506123d2828461238b565b91508190509392505050565b5f819050815f5260205f209050919050565b5f6020601f8301049050919050565b5f82821b905092915050565b5f6008830261243a7fffffffffffffffffffffffffffffffffffffffffffffffffffffffffffffffff826123ff565b61244486836123ff565b95508019841693508086168417925050509392505050565b5f819050919050565b5f61247f61247a61247584611ce1565b61245c565b611ce1565b9050919050565b5f819050919050565b61249883612465565b6124ac6124a482612486565b84845461240b565b825550505050565b5f5f905090565b6124c36124b4565b6124ce81848461248f565b505050565b5b818110156124f1576124e65f826124bb565b6001810190506124d4565b5050565b601f82111561253657612507816123de565b612510846123f0565b8101602085101561251f578190505b61253361252b856123f0565b8301826124d3565b50505b505050565b5f82821c905092915050565b5f6125565f198460080261253b565b1980831691505092915050565b5f61256e8383612547565b9150826002028217905092915050565b61258782611dc5565b67ffffffffffffffff8111156125a05761259f611ff7565b5b6125aa825461231c565b6125b58282856124f5565b5f60209050601f8311600181146125e6575f84156125d4578287015190505b6125de8582612563565b865550612645565b601f1984166125f4866123de565b5f5b8281101561261b578489015182556001820191506020850194506020810190506125f6565b868310156126385784890151612634601f891682612547565b8355505b6001600288020188555050505b505050505050565b5f81519050919050565b5f82825260208201905092915050565b5f6126718261264d565b61267b8185612657565b935061268b818560208601611ddf565b61269481611ded565b840191505092915050565b5f6080820190506126b25f830187611eaa565b6126bf6020830186611eaa565b6126cc6040830185611cea565b81810360608301526126de8184612667565b905095945050505050565b5f815190506126f781611d3d565b92915050565b5f6020828403121561271257612711611bc1565b5b5f61271f848285016126e9565b91505092915050565b5f60408201905061273b5f830185611eaa565b6127486020830184611cea565b9392505050565b7f4e487b71000000000000000000000000000000000000000000000000000000005f52601260045260245ffdfea2646970667358221220aeaaad86769982b56fabb3676209fc71473a08b3dcbb3f3dcb57467dd019387e64736f6c634300081c0033",
  "linkReferences": {},
  "deployedLinkReferences": {},
  "immutableReferences": {},
  "inputSourceName": "project/contracts/GameNFT.sol",
  "buildInfoId": "solc-0_8_28-c06caadf12e81f53031fff6fd632196065b475d3"
}